{
  "contractName": "ShhData",
  "abi": [
    {
      "constant": true,
      "inputs": [],
      "name": "owner",
      "outputs": [
        {
          "name": "",
          "type": "address"
        }
      ],
      "payable": false,
      "stateMutability": "view",
      "type": "function"
    },
    {
      "constant": true,
      "inputs": [
        {
          "name": "",
          "type": "address"
        }
      ],
      "name": "shhPubKeyMap",
      "outputs": [
        {
          "name": "",
          "type": "string"
        }
      ],
      "payable": false,
      "stateMutability": "view",
      "type": "function"
    },
    {
      "inputs": [],
      "payable": false,
      "stateMutability": "nonpayable",
      "type": "constructor"
    },
    {
      "constant": false,
      "inputs": [
        {
          "name": "shhKeyId",
          "type": "string"
        },
        {
          "name": "shhPriKey",
          "type": "bytes32"
        },
        {
          "name": "shhPubKey",
          "type": "string"
        }
      ],
      "name": "saveShhKey",
      "outputs": [
        {
          "name": "success",
          "type": "bool"
        }
      ],
      "payable": false,
      "stateMutability": "nonpayable",
      "type": "function"
    },
    {
      "constant": false,
      "inputs": [
        {
          "name": "shhKeyId",
          "type": "string"
        }
      ],
      "name": "saveShhKeyId",
      "outputs": [
        {
          "name": "success",
          "type": "bool"
        }
      ],
      "payable": false,
      "stateMutability": "nonpayable",
      "type": "function"
    },
    {
      "constant": false,
      "inputs": [
        {
          "name": "shhPriKey",
          "type": "bytes32"
        }
      ],
      "name": "saveShhKeyPriKey",
      "outputs": [
        {
          "name": "success",
          "type": "bool"
        }
      ],
      "payable": false,
      "stateMutability": "nonpayable",
      "type": "function"
    },
    {
      "constant": false,
      "inputs": [
        {
          "name": "shhPubKey",
          "type": "string"
        }
      ],
      "name": "saveShhPubKey",
      "outputs": [
        {
          "name": "success",
          "type": "bool"
        }
      ],
      "payable": false,
      "stateMutability": "nonpayable",
      "type": "function"
    },
    {
      "constant": false,
      "inputs": [],
      "name": "getShhKeyId",
      "outputs": [
        {
          "name": "keyId",
          "type": "string"
        }
      ],
      "payable": false,
      "stateMutability": "nonpayable",
      "type": "function"
    },
    {
      "constant": false,
      "inputs": [],
      "name": "getShhPriKey",
      "outputs": [
        {
          "name": "priKey",
          "type": "bytes32"
        }
      ],
      "payable": false,
      "stateMutability": "nonpayable",
      "type": "function"
    },
    {
      "constant": false,
      "inputs": [],
      "name": "getShhPubKey",
      "outputs": [
        {
          "name": "pubKey",
          "type": "string"
        }
      ],
      "payable": false,
      "stateMutability": "nonpayable",
      "type": "function"
    },
    {
      "constant": false,
      "inputs": [
        {
          "name": "adr",
          "type": "address"
        }
      ],
      "name": "getPublicShhPubKey",
      "outputs": [
        {
          "name": "pubKey",
          "type": "string"
        }
      ],
      "payable": false,
      "stateMutability": "nonpayable",
      "type": "function"
    }
  ],
  "bytecode": "0x608060405234801561001057600080fd5b50336000806101000a81548173ffffffffffffffffffffffffffffffffffffffff021916908373ffffffffffffffffffffffffffffffffffffffff160217905550610c85806100606000396000f3006080604052600436106100a4576000357c0100000000000000000000000000000000000000000000000000000000900463ffffffff168063331899cc146100a95780633b5d4dcf146100f2578063450ce74314610182578063779d9e7b146102035780638da5cb5b146102d8578063aa3fee9d1461032f578063b96711ec146103eb578063cae7b4c01461041e578063d19139511461049f578063d7e210c51461052f575b600080fd5b3480156100b557600080fd5b506100d860048036038101908080356000191690602001909291905050506105eb565b604051808215151515815260200191505060405180910390f35b3480156100fe57600080fd5b5061010761063e565b6040518080602001828103825283818151815260200191508051906020019080838360005b8381101561014757808201518184015260208101905061012c565b50505050905090810190601f1680156101745780820380516001836020036101000a031916815260200191505b509250505060405180910390f35b34801561018e57600080fd5b506101e9600480360381019080803590602001908201803590602001908080601f016020809104026020016040519081016040528093929190818152602001838380828437820191505050505050919291929050505061071d565b604051808215151515815260200191505060405180910390f35b34801561020f57600080fd5b506102be600480360381019080803590602001908201803590602001908080601f01602080910402602001604051908101604052809392919081815260200183838082843782019150505050505091929192908035600019169060200190929190803590602001908201803590602001908080601f016020809104026020016040519081016040528093929190818152602001838380828437820191505050505050919291929050505061077c565b604051808215151515815260200191505060405180910390f35b3480156102e457600080fd5b506102ed610879565b604051808273ffffffffffffffffffffffffffffffffffffffff1673ffffffffffffffffffffffffffffffffffffffff16815260200191505060405180910390f35b34801561033b57600080fd5b50610370600480360381019080803573ffffffffffffffffffffffffffffffffffffffff16906020019092919050505061089e565b6040518080602001828103825283818151815260200191508051906020019080838360005b838110156103b0578082015181840152602081019050610395565b50505050905090810190601f1680156103dd5780820380516001836020036101000a031916815260200191505b509250505060405180910390f35b3480156103f757600080fd5b5061040061094e565b60405180826000191660001916815260200191505060405180910390f35b34801561042a57600080fd5b50610485600480360381019080803590602001908201803590602001908080601f0160208091040260200160405190810160405280939291908181526020018383808284378201915050505050509192919290505050610995565b604051808215151515815260200191505060405180910390f35b3480156104ab57600080fd5b506104b46109f4565b6040518080602001828103825283818151815260200191508051906020019080838360005b838110156104f45780820151818401526020810190506104d9565b50505050905090810190601f1680156105215780820380516001836020036101000a031916815260200191505b509250505060405180910390f35b34801561053b57600080fd5b50610570600480360381019080803573ffffffffffffffffffffffffffffffffffffffff169060200190929190505050610ad3565b6040518080602001828103825283818151815260200191508051906020019080838360005b838110156105b0578082015181840152602081019050610595565b50505050905090810190601f1680156105dd5780820380516001836020036101000a031916815260200191505b509250505060405180910390f35b600081600260003373ffffffffffffffffffffffffffffffffffffffff1673ffffffffffffffffffffffffffffffffffffffff168152602001908152602001600020816000191690555060019050919050565b6060600360003373ffffffffffffffffffffffffffffffffffffffff1673ffffffffffffffffffffffffffffffffffffffff1681526020019081526020016000208054600181600116156101000203166002900480601f0160208091040260200160405190810160405280929190818152602001828054600181600116156101000203166002900480156107135780601f106106e857610100808354040283529160200191610713565b820191906000526020600020905b8154815290600101906020018083116106f657829003601f168201915b5050505050905090565b600081600360003373ffffffffffffffffffffffffffffffffffffffff1673ffffffffffffffffffffffffffffffffffffffff1681526020019081526020016000209080519060200190610772929190610bb4565b5060019050919050565b600083600160003373ffffffffffffffffffffffffffffffffffffffff1673ffffffffffffffffffffffffffffffffffffffff16815260200190815260200160002090805190602001906107d1929190610bb4565b5082600260003373ffffffffffffffffffffffffffffffffffffffff1673ffffffffffffffffffffffffffffffffffffffff168152602001908152602001600020816000191690555081600360003373ffffffffffffffffffffffffffffffffffffffff1673ffffffffffffffffffffffffffffffffffffffff168152602001908152602001600020908051906020019061086d929190610bb4565b50600190509392505050565b6000809054906101000a900473ffffffffffffffffffffffffffffffffffffffff1681565b60036020528060005260406000206000915090508054600181600116156101000203166002900480601f0160208091040260200160405190810160405280929190818152602001828054600181600116156101000203166002900480156109465780601f1061091b57610100808354040283529160200191610946565b820191906000526020600020905b81548152906001019060200180831161092957829003601f168201915b505050505081565b6000600260003373ffffffffffffffffffffffffffffffffffffffff1673ffffffffffffffffffffffffffffffffffffffff16815260200190815260200160002054905090565b600081600160003373ffffffffffffffffffffffffffffffffffffffff1673ffffffffffffffffffffffffffffffffffffffff16815260200190815260200160002090805190602001906109ea929190610bb4565b5060019050919050565b6060600160003373ffffffffffffffffffffffffffffffffffffffff1673ffffffffffffffffffffffffffffffffffffffff1681526020019081526020016000208054600181600116156101000203166002900480601f016020809104026020016040519081016040528092919081815260200182805460018160011615610100020316600290048015610ac95780601f10610a9e57610100808354040283529160200191610ac9565b820191906000526020600020905b815481529060010190602001808311610aac57829003601f168201915b5050505050905090565b6060600360008373ffffffffffffffffffffffffffffffffffffffff1673ffffffffffffffffffffffffffffffffffffffff1681526020019081526020016000208054600181600116156101000203166002900480601f016020809104026020016040519081016040528092919081815260200182805460018160011615610100020316600290048015610ba85780601f10610b7d57610100808354040283529160200191610ba8565b820191906000526020600020905b815481529060010190602001808311610b8b57829003601f168201915b50505050509050919050565b828054600181600116156101000203166002900490600052602060002090601f016020900481019282601f10610bf557805160ff1916838001178555610c23565b82800160010185558215610c23579182015b82811115610c22578251825591602001919060010190610c07565b5b509050610c309190610c34565b5090565b610c5691905b80821115610c52576000816000905550600101610c3a565b5090565b905600a165627a7a723058203744c6a6874a77bccdda6b9ba0e5ca7a00fdfa651177a09afa6791fd74934fbd0029",
  "source": "pragma solidity ^0.4.24;\n\ncontract ShhData {\n\n  address public owner;\n  mapping(address => string) shhKeyIdMap;\n  mapping(address => bytes32) shhPriKeyMap;\n  mapping(address => string) public shhPubKeyMap;\n\n  constructor() public {\n    owner = msg.sender;\n  }\n\n  function saveShhKey(string shhKeyId, bytes32 shhPriKey, string shhPubKey) public returns (bool success) {\n    shhKeyIdMap[msg.sender] = shhKeyId;\n    shhPriKeyMap[msg.sender] = shhPriKey;\n    shhPubKeyMap[msg.sender] = shhPubKey;\n    return true;\n  }\n\n  function saveShhKeyId(string shhKeyId) public returns (bool success) {\n    shhKeyIdMap[msg.sender] = shhKeyId;\n    return true;\n  }\n\n  function saveShhKeyPriKey(bytes32 shhPriKey) public returns (bool success) {\n    shhPriKeyMap[msg.sender] = shhPriKey;\n    return true;\n  }\n\n  function saveShhPubKey(string shhPubKey) public returns (bool success) {\n    shhPubKeyMap[msg.sender] = shhPubKey;\n    return true;\n  }\n\n  function getShhKeyId() public returns(string keyId) {\n    return shhKeyIdMap[msg.sender];\n  }\n\n  function getShhPriKey() public returns(bytes32 priKey) {\n    return shhPriKeyMap[msg.sender];\n  }\n\n  function getShhPubKey() public returns(string pubKey) {\n    return shhPubKeyMap[msg.sender];\n  }\n\n  function getPublicShhPubKey(address adr) public returns(string pubKey) {\n    return shhPubKeyMap[adr];\n  }\n\n}\n",
  "sourcePath": "F:/data/allcom-open-resource/tokenim-app/truffle/shh-data/contracts/ShhData.sol",
  "compiler": {
    "name": "solc",
    "version": "0.4.24+commit.e67f0147.Emscripten.clang"
  },
  "schemaVersion": "3.3.2",
  "updatedAt": "2020-12-17T05:13:39.648Z",
  "networkType": "ethereum",
  "devdoc": {
    "methods": {}
  },
  "userdoc": {
    "methods": {}
  }
}