{
  "contractName": "ApiConfig",
  "abi": [
    {
      "constant": true,
      "inputs": [],
      "name": "ens_fax_domain_owner",
      "outputs": [
        {
          "name": "",
          "type": "address"
        }
      ],
      "payable": false,
      "stateMutability": "view",
      "type": "function"
    },
    {
      "constant": true,
      "inputs": [],
      "name": "ethereum_account",
      "outputs": [
        {
          "name": "",
          "type": "address"
        }
      ],
      "payable": false,
      "stateMutability": "view",
      "type": "function"
    },
    {
      "constant": true,
      "inputs": [],
      "name": "ens_fax_domain_prikey",
      "outputs": [
        {
          "name": "",
          "type": "string"
        }
      ],
      "payable": false,
      "stateMutability": "view",
      "type": "function"
    },
    {
      "constant": true,
      "inputs": [],
      "name": "owner",
      "outputs": [
        {
          "name": "",
          "type": "address"
        }
      ],
      "payable": false,
      "stateMutability": "view",
      "type": "function"
    },
    {
      "constant": true,
      "inputs": [],
      "name": "ethereum_number",
      "outputs": [
        {
          "name": "",
          "type": "uint256"
        }
      ],
      "payable": false,
      "stateMutability": "view",
      "type": "function"
    },
    {
      "constant": true,
      "inputs": [],
      "name": "user_data_prikey",
      "outputs": [
        {
          "name": "",
          "type": "string"
        }
      ],
      "payable": false,
      "stateMutability": "view",
      "type": "function"
    },
    {
      "constant": true,
      "inputs": [],
      "name": "ethereum_account_prikey",
      "outputs": [
        {
          "name": "",
          "type": "string"
        }
      ],
      "payable": false,
      "stateMutability": "view",
      "type": "function"
    },
    {
      "constant": true,
      "inputs": [],
      "name": "user_data_owner",
      "outputs": [
        {
          "name": "",
          "type": "address"
        }
      ],
      "payable": false,
      "stateMutability": "view",
      "type": "function"
    },
    {
      "inputs": [
        {
          "name": "_ether_account",
          "type": "address"
        },
        {
          "name": "_ether_prikey",
          "type": "string"
        },
        {
          "name": "_ether_number",
          "type": "uint256"
        },
        {
          "name": "_ens_fax_owner",
          "type": "address"
        },
        {
          "name": "_ens_fax_prikey",
          "type": "string"
        },
        {
          "name": "_user_data_owner",
          "type": "address"
        },
        {
          "name": "_user_data_prikey",
          "type": "string"
        }
      ],
      "payable": false,
      "stateMutability": "nonpayable",
      "type": "constructor"
    },
    {
      "constant": false,
      "inputs": [
        {
          "name": "_ether_account",
          "type": "address"
        },
        {
          "name": "_ether_prikey",
          "type": "string"
        },
        {
          "name": "_ether_number",
          "type": "uint256"
        }
      ],
      "name": "setEtherAccount",
      "outputs": [
        {
          "name": "success",
          "type": "bool"
        }
      ],
      "payable": false,
      "stateMutability": "nonpayable",
      "type": "function"
    },
    {
      "constant": false,
      "inputs": [
        {
          "name": "_ens_fax_owner",
          "type": "address"
        },
        {
          "name": "_ens_fax_prikey",
          "type": "string"
        }
      ],
      "name": "setEnsFaxDomainAccount",
      "outputs": [
        {
          "name": "success",
          "type": "bool"
        }
      ],
      "payable": false,
      "stateMutability": "nonpayable",
      "type": "function"
    },
    {
      "constant": false,
      "inputs": [
        {
          "name": "_user_data_owner",
          "type": "address"
        },
        {
          "name": "_user_data_prikey",
          "type": "string"
        }
      ],
      "name": "setUserDataAccount",
      "outputs": [
        {
          "name": "success",
          "type": "bool"
        }
      ],
      "payable": false,
      "stateMutability": "nonpayable",
      "type": "function"
    }
  ],
  "bytecode": "0x608060405234801561001057600080fd5b50604051610de3380380610de383398101806040528101908080519060200190929190805182019291906020018051906020019092919080519060200190929190805182019291906020018051906020019092919080518201929190505050336000806101000a81548173ffffffffffffffffffffffffffffffffffffffff021916908373ffffffffffffffffffffffffffffffffffffffff16021790555086600160006101000a81548173ffffffffffffffffffffffffffffffffffffffff021916908373ffffffffffffffffffffffffffffffffffffffff16021790555085600290805190602001906101069291906101ca565b508460038190555083600460006101000a81548173ffffffffffffffffffffffffffffffffffffffff021916908373ffffffffffffffffffffffffffffffffffffffff16021790555082600590805190602001906101659291906101ca565b5081600660006101000a81548173ffffffffffffffffffffffffffffffffffffffff021916908373ffffffffffffffffffffffffffffffffffffffff16021790555080600790805190602001906101bd9291906101ca565b505050505050505061026f565b828054600181600116156101000203166002900490600052602060002090601f016020900481019282601f1061020b57805160ff1916838001178555610239565b82800160010185558215610239579182015b8281111561023857825182559160200191906001019061021d565b5b509050610246919061024a565b5090565b61026c91905b80821115610268576000816000905550600101610250565b5090565b90565b610b658061027e6000396000f3006080604052600436106100af576000357c0100000000000000000000000000000000000000000000000000000000900463ffffffff168063232b7e1b146100b4578063497b39171461010b57806373667ac4146101ac57806375dce96f14610203578063796d5847146102935780638da5cb5b146103345780639271c86a1461038b578063cb14ea4114610436578063cc7415b414610461578063dfafbf00146104f1578063f72ec55614610581575b600080fd5b3480156100c057600080fd5b506100c96105d8565b604051808273ffffffffffffffffffffffffffffffffffffffff1673ffffffffffffffffffffffffffffffffffffffff16815260200191505060405180910390f35b34801561011757600080fd5b50610192600480360381019080803573ffffffffffffffffffffffffffffffffffffffff169060200190929190803590602001908201803590602001908080601f01602080910402602001604051908101604052809392919081815260200183838082843782019150505050505091929192905050506105fe565b604051808215151515815260200191505060405180910390f35b3480156101b857600080fd5b506101c16106bd565b604051808273ffffffffffffffffffffffffffffffffffffffff1673ffffffffffffffffffffffffffffffffffffffff16815260200191505060405180910390f35b34801561020f57600080fd5b506102186106e3565b6040518080602001828103825283818151815260200191508051906020019080838360005b8381101561025857808201518184015260208101905061023d565b50505050905090810190601f1680156102855780820380516001836020036101000a031916815260200191505b509250505060405180910390f35b34801561029f57600080fd5b5061031a600480360381019080803573ffffffffffffffffffffffffffffffffffffffff169060200190929190803590602001908201803590602001908080601f0160208091040260200160405190810160405280939291908181526020018383808284378201915050505050509192919290505050610781565b604051808215151515815260200191505060405180910390f35b34801561034057600080fd5b50610349610840565b604051808273ffffffffffffffffffffffffffffffffffffffff1673ffffffffffffffffffffffffffffffffffffffff16815260200191505060405180910390f35b34801561039757600080fd5b5061041c600480360381019080803573ffffffffffffffffffffffffffffffffffffffff169060200190929190803590602001908201803590602001908080601f016020809104026020016040519081016040528093929190818152602001838380828437820191505050505050919291929080359060200190929190505050610865565b604051808215151515815260200191505060405180910390f35b34801561044257600080fd5b5061044b61092c565b6040518082815260200191505060405180910390f35b34801561046d57600080fd5b50610476610932565b6040518080602001828103825283818151815260200191508051906020019080838360005b838110156104b657808201518184015260208101905061049b565b50505050905090810190601f1680156104e35780820380516001836020036101000a031916815260200191505b509250505060405180910390f35b3480156104fd57600080fd5b506105066109d0565b6040518080602001828103825283818151815260200191508051906020019080838360005b8381101561054657808201518184015260208101905061052b565b50505050905090810190601f1680156105735780820380516001836020036101000a031916815260200191505b509250505060405180910390f35b34801561058d57600080fd5b50610596610a6e565b604051808273ffffffffffffffffffffffffffffffffffffffff1673ffffffffffffffffffffffffffffffffffffffff16815260200191505060405180910390f35b600460009054906101000a900473ffffffffffffffffffffffffffffffffffffffff1681565b60008060009054906101000a900473ffffffffffffffffffffffffffffffffffffffff1673ffffffffffffffffffffffffffffffffffffffff163373ffffffffffffffffffffffffffffffffffffffff1614151561065b57600080fd5b82600660006101000a81548173ffffffffffffffffffffffffffffffffffffffff021916908373ffffffffffffffffffffffffffffffffffffffff16021790555081600790805190602001906106b2929190610a94565b506001905092915050565b600160009054906101000a900473ffffffffffffffffffffffffffffffffffffffff1681565b60058054600181600116156101000203166002900480601f0160208091040260200160405190810160405280929190818152602001828054600181600116156101000203166002900480156107795780601f1061074e57610100808354040283529160200191610779565b820191906000526020600020905b81548152906001019060200180831161075c57829003601f168201915b505050505081565b60008060009054906101000a900473ffffffffffffffffffffffffffffffffffffffff1673ffffffffffffffffffffffffffffffffffffffff163373ffffffffffffffffffffffffffffffffffffffff161415156107de57600080fd5b82600460006101000a81548173ffffffffffffffffffffffffffffffffffffffff021916908373ffffffffffffffffffffffffffffffffffffffff1602179055508160059080519060200190610835929190610a94565b506001905092915050565b6000809054906101000a900473ffffffffffffffffffffffffffffffffffffffff1681565b60008060009054906101000a900473ffffffffffffffffffffffffffffffffffffffff1673ffffffffffffffffffffffffffffffffffffffff163373ffffffffffffffffffffffffffffffffffffffff161415156108c257600080fd5b83600160006101000a81548173ffffffffffffffffffffffffffffffffffffffff021916908373ffffffffffffffffffffffffffffffffffffffff1602179055508260029080519060200190610919929190610a94565b5081600381905550600190509392505050565b60035481565b60078054600181600116156101000203166002900480601f0160208091040260200160405190810160405280929190818152602001828054600181600116156101000203166002900480156109c85780601f1061099d576101008083540402835291602001916109c8565b820191906000526020600020905b8154815290600101906020018083116109ab57829003601f168201915b505050505081565b60028054600181600116156101000203166002900480601f016020809104026020016040519081016040528092919081815260200182805460018160011615610100020316600290048015610a665780601f10610a3b57610100808354040283529160200191610a66565b820191906000526020600020905b815481529060010190602001808311610a4957829003601f168201915b505050505081565b600660009054906101000a900473ffffffffffffffffffffffffffffffffffffffff1681565b828054600181600116156101000203166002900490600052602060002090601f016020900481019282601f10610ad557805160ff1916838001178555610b03565b82800160010185558215610b03579182015b82811115610b02578251825591602001919060010190610ae7565b5b509050610b109190610b14565b5090565b610b3691905b80821115610b32576000816000905550600101610b1a565b5090565b905600a165627a7a723058206a93a9f017945d23c8a9683693ff358a2e00eff3d8a15121e22168acfeda3def0029",
  "source": "pragma solidity ^0.4.24;\r\n\r\ncontract ApiConfig{\r\n    address public owner;\r\n    \r\n    address public ethereum_account;\r\n    string public ethereum_account_prikey;\r\n    uint256 public ethereum_number;\r\n    \r\n    address public ens_fax_domain_owner;\r\n    string public ens_fax_domain_prikey;\r\n    \r\n    address public user_data_owner;\r\n    string public user_data_prikey;\r\n    \r\n    function ApiConfig(\r\n        address _ether_account,\r\n        string _ether_prikey, \r\n        uint256 _ether_number, \r\n        address _ens_fax_owner,\r\n        string _ens_fax_prikey,\r\n        address _user_data_owner,\r\n        string _user_data_prikey\r\n    ) public {\r\n        owner = msg.sender;\r\n        \r\n        ethereum_account = _ether_account;\r\n        ethereum_account_prikey = _ether_prikey;\r\n        ethereum_number = _ether_number;\r\n        \r\n        ens_fax_domain_owner = _ens_fax_owner;\r\n        ens_fax_domain_prikey = _ens_fax_prikey;\r\n        \r\n        user_data_owner = _user_data_owner;\r\n        user_data_prikey = _user_data_prikey;\r\n    }\r\n    \r\n    function setEtherAccount(address _ether_account, string _ether_prikey, uint256 _ether_number) public returns(bool success){\r\n        require(msg.sender == owner);\r\n        ethereum_account = _ether_account;\r\n        ethereum_account_prikey = _ether_prikey;\r\n        ethereum_number = _ether_number;\r\n        \r\n        return true;\r\n    }\r\n    \r\n    function setEnsFaxDomainAccount(address _ens_fax_owner, string _ens_fax_prikey) public returns(bool success){\r\n        require(msg.sender == owner);\r\n        ens_fax_domain_owner = _ens_fax_owner;\r\n        ens_fax_domain_prikey = _ens_fax_prikey;\r\n        \r\n        return true;\r\n    }\r\n    \r\n    function setUserDataAccount(address _user_data_owner, string _user_data_prikey) public returns(bool success){\r\n        require(msg.sender == owner);\r\n        user_data_owner = _user_data_owner;\r\n        user_data_prikey = _user_data_prikey;\r\n        \r\n        return true;\r\n    }\r\n}\r\n",
  "sourcePath": "D:\\FaxToken-IM-new\\contracts\\ApiConfig.sol",
  "compiler": {
    "name": "solc",
    "version": "0.4.24+commit.e67f0147.Emscripten.clang"
  },
  "schemaVersion": "2.0.0",
  "updatedAt": "2019-06-12T06:11:57.588Z"
}