{
  "contractName": "FaxTokenIM",
  "abi": [
    {
      "constant": true,
      "inputs": [
        {
          "name": "",
          "type": "address"
        },
        {
          "name": "",
          "type": "address"
        }
      ],
      "name": "MessageList",
      "outputs": [
        {
          "name": "_time",
          "type": "uint256"
        },
        {
          "name": "_messageBody",
          "type": "uint256"
        }
      ],
      "payable": false,
      "stateMutability": "view",
      "type": "function"
    },
    {
      "constant": true,
      "inputs": [
        {
          "name": "",
          "type": "uint256"
        },
        {
          "name": "",
          "type": "address"
        }
      ],
      "name": "loginReward",
      "outputs": [
        {
          "name": "",
          "type": "uint256"
        }
      ],
      "payable": false,
      "stateMutability": "view",
      "type": "function"
    },
    {
      "constant": true,
      "inputs": [],
      "name": "messageCount",
      "outputs": [
        {
          "name": "",
          "type": "uint256"
        }
      ],
      "payable": false,
      "stateMutability": "view",
      "type": "function"
    },
    {
      "constant": true,
      "inputs": [],
      "name": "tokenContract",
      "outputs": [
        {
          "name": "",
          "type": "address"
        }
      ],
      "payable": false,
      "stateMutability": "view",
      "type": "function"
    },
    {
      "constant": true,
      "inputs": [
        {
          "name": "",
          "type": "address"
        }
      ],
      "name": "registedReward",
      "outputs": [
        {
          "name": "",
          "type": "uint256"
        }
      ],
      "payable": false,
      "stateMutability": "view",
      "type": "function"
    },
    {
      "constant": true,
      "inputs": [],
      "name": "rewards",
      "outputs": [
        {
          "name": "",
          "type": "uint256"
        }
      ],
      "payable": false,
      "stateMutability": "view",
      "type": "function"
    },
    {
      "constant": true,
      "inputs": [],
      "name": "tokenAdmin",
      "outputs": [
        {
          "name": "",
          "type": "address"
        }
      ],
      "payable": false,
      "stateMutability": "view",
      "type": "function"
    },
    {
      "constant": true,
      "inputs": [],
      "name": "admin",
      "outputs": [
        {
          "name": "",
          "type": "address"
        }
      ],
      "payable": false,
      "stateMutability": "view",
      "type": "function"
    },
    {
      "constant": true,
      "inputs": [
        {
          "name": "",
          "type": "address"
        }
      ],
      "name": "shhPubKey",
      "outputs": [
        {
          "name": "",
          "type": "string"
        }
      ],
      "payable": false,
      "stateMutability": "view",
      "type": "function"
    },
    {
      "inputs": [
        {
          "name": "_tokenContract",
          "type": "address"
        },
        {
          "name": "_tokenAdmin",
          "type": "address"
        }
      ],
      "payable": true,
      "stateMutability": "payable",
      "type": "constructor"
    },
    {
      "anonymous": false,
      "inputs": [
        {
          "indexed": true,
          "name": "_account",
          "type": "address"
        },
        {
          "indexed": false,
          "name": "_value",
          "type": "uint256"
        }
      ],
      "name": "RegistedReward",
      "type": "event"
    },
    {
      "anonymous": false,
      "inputs": [
        {
          "indexed": true,
          "name": "_account",
          "type": "address"
        },
        {
          "indexed": false,
          "name": "_value",
          "type": "uint256"
        }
      ],
      "name": "LoginReward",
      "type": "event"
    },
    {
      "anonymous": false,
      "inputs": [
        {
          "indexed": true,
          "name": "_from",
          "type": "address"
        },
        {
          "indexed": true,
          "name": "_to",
          "type": "address"
        }
      ],
      "name": "MessageSendSuccess",
      "type": "event"
    },
    {
      "constant": false,
      "inputs": [
        {
          "name": "_pubkey",
          "type": "string"
        }
      ],
      "name": "setPubKey",
      "outputs": [],
      "payable": false,
      "stateMutability": "nonpayable",
      "type": "function"
    },
    {
      "constant": false,
      "inputs": [],
      "name": "TransferOutToken",
      "outputs": [],
      "payable": false,
      "stateMutability": "nonpayable",
      "type": "function"
    },
    {
      "constant": false,
      "inputs": [],
      "name": "getRegistedReward",
      "outputs": [],
      "payable": true,
      "stateMutability": "payable",
      "type": "function"
    },
    {
      "constant": false,
      "inputs": [],
      "name": "getLoginReward",
      "outputs": [],
      "payable": true,
      "stateMutability": "payable",
      "type": "function"
    },
    {
      "constant": false,
      "inputs": [
        {
          "name": "to",
          "type": "address"
        },
        {
          "name": "messageBody",
          "type": "uint256"
        }
      ],
      "name": "sendMessage",
      "outputs": [],
      "payable": true,
      "stateMutability": "payable",
      "type": "function"
    }
  ],
  "bytecode": "0x6080604052600060045560006005556014600655600560075560016008556040516040806117c78339810180604052810190808051906020019092919080519060200190929190505050336000806101000a81548173ffffffffffffffffffffffffffffffffffffffff021916908373ffffffffffffffffffffffffffffffffffffffff16021790555081600160006101000a81548173ffffffffffffffffffffffffffffffffffffffff021916908373ffffffffffffffffffffffffffffffffffffffff16021790555080600260006101000a81548173ffffffffffffffffffffffffffffffffffffffff021916908373ffffffffffffffffffffffffffffffffffffffff16021790555050506116ab8061011c6000396000f3006080604052600436106100d0576000357c0100000000000000000000000000000000000000000000000000000000900463ffffffff16806307412e9c146100d557806314cea6e31461013e57806316abe5f4146101bc5780633dbcc8d11461021d57806355a373d61461024857806388dc4f641461029f5780639ec5a894146102f6578063b7e1917c14610321578063b7ecdd2514610378578063d75c564514610382578063dbf7bcd51461038c578063f851a440146103a3578063f9d53aeb146103fa578063fa57c82d1461043a575b600080fd5b3480156100e157600080fd5b5061013c600480360381019080803590602001908201803590602001908080601f01602080910402602001604051908101604052809392919081815260200183838082843782019150505050505091929192905050506104f6565b005b34801561014a57600080fd5b5061019f600480360381019080803573ffffffffffffffffffffffffffffffffffffffff169060200190929190803573ffffffffffffffffffffffffffffffffffffffff16906020019092919050505061054d565b604051808381526020018281526020019250505060405180910390f35b3480156101c857600080fd5b5061020760048036038101908080359060200190929190803573ffffffffffffffffffffffffffffffffffffffff16906020019092919050505061057e565b6040518082815260200191505060405180910390f35b34801561022957600080fd5b506102326105a3565b6040518082815260200191505060405180910390f35b34801561025457600080fd5b5061025d6105a9565b604051808273ffffffffffffffffffffffffffffffffffffffff1673ffffffffffffffffffffffffffffffffffffffff16815260200191505060405180910390f35b3480156102ab57600080fd5b506102e0600480360381019080803573ffffffffffffffffffffffffffffffffffffffff1690602001909291905050506105cf565b6040518082815260200191505060405180910390f35b34801561030257600080fd5b5061030b6105e7565b6040518082815260200191505060405180910390f35b34801561032d57600080fd5b506103366105ed565b604051808273ffffffffffffffffffffffffffffffffffffffff1673ffffffffffffffffffffffffffffffffffffffff16815260200191505060405180910390f35b610380610613565b005b61038a610a09565b005b34801561039857600080fd5b506103a1610dc1565b005b3480156103af57600080fd5b506103b8611038565b604051808273ffffffffffffffffffffffffffffffffffffffff1673ffffffffffffffffffffffffffffffffffffffff16815260200191505060405180910390f35b610438600480360381019080803573ffffffffffffffffffffffffffffffffffffffff1690602001909291908035906020019092919050505061105d565b005b34801561044657600080fd5b5061047b600480360381019080803573ffffffffffffffffffffffffffffffffffffffff16906020019092919050505061152a565b6040518080602001828103825283818151815260200191508051906020019080838360005b838110156104bb5780820151818401526020810190506104a0565b50505050905090810190601f1680156104e85780820380516001836020036101000a031916815260200191505b509250505060405180910390f35b80600360003373ffffffffffffffffffffffffffffffffffffffff1673ffffffffffffffffffffffffffffffffffffffff16815260200190815260200160002090805190602001906105499291906115da565b5050565b600b602052816000526040600020602052806000526040600020600091509150508060000154908060010154905082565b600a602052816000526040600020602052806000526040600020600091509150505481565b60055481565b600160009054906101000a900473ffffffffffffffffffffffffffffffffffffffff1681565b60096020528060005260406000206000915090505481565b60045481565b600260009054906101000a900473ffffffffffffffffffffffffffffffffffffffff1681565b6000600a6000620151804281151561062757fe5b04815260200190815260200160002060003373ffffffffffffffffffffffffffffffffffffffff1673ffffffffffffffffffffffffffffffffffffffff1681526020019081526020016000205414151561068057600080fd5b600754600160009054906101000a900473ffffffffffffffffffffffffffffffffffffffff1673ffffffffffffffffffffffffffffffffffffffff1663dd62ed3e600260009054906101000a900473ffffffffffffffffffffffffffffffffffffffff16306040518363ffffffff167c0100000000000000000000000000000000000000000000000000000000028152600401808373ffffffffffffffffffffffffffffffffffffffff1673ffffffffffffffffffffffffffffffffffffffff1681526020018273ffffffffffffffffffffffffffffffffffffffff1673ffffffffffffffffffffffffffffffffffffffff16815260200192505050602060405180830381600087803b15801561079657600080fd5b505af11580156107aa573d6000803e3d6000fd5b505050506040513d60208110156107c057600080fd5b8101908080519060200190929190505050101515156107de57600080fd5b600160009054906101000a900473ffffffffffffffffffffffffffffffffffffffff1673ffffffffffffffffffffffffffffffffffffffff166323b872dd600260009054906101000a900473ffffffffffffffffffffffffffffffffffffffff16336007546040518463ffffffff167c0100000000000000000000000000000000000000000000000000000000028152600401808473ffffffffffffffffffffffffffffffffffffffff1673ffffffffffffffffffffffffffffffffffffffff1681526020018373ffffffffffffffffffffffffffffffffffffffff1673ffffffffffffffffffffffffffffffffffffffff1681526020018281526020019350505050602060405180830381600087803b1580156108fb57600080fd5b505af115801561090f573d6000803e3d6000fd5b505050506040513d602081101561092557600080fd5b810190808051906020019092919050505050600754600a6000620151804281151561094c57fe5b04815260200190815260200160002060003373ffffffffffffffffffffffffffffffffffffffff1673ffffffffffffffffffffffffffffffffffffffff168152602001908152602001600020600082825401925050819055506007546004600082825401925050819055503373ffffffffffffffffffffffffffffffffffffffff167fd75be7533d99161a8709c61d88908b2cc195b2093b77e2c31e781c483d8ed0b96007546040518082815260200191505060405180910390a2565b6000600960003373ffffffffffffffffffffffffffffffffffffffff1673ffffffffffffffffffffffffffffffffffffffff16815260200190815260200160002054141515610a5757600080fd5b600654600160009054906101000a900473ffffffffffffffffffffffffffffffffffffffff1673ffffffffffffffffffffffffffffffffffffffff1663dd62ed3e600260009054906101000a900473ffffffffffffffffffffffffffffffffffffffff16306040518363ffffffff167c0100000000000000000000000000000000000000000000000000000000028152600401808373ffffffffffffffffffffffffffffffffffffffff1673ffffffffffffffffffffffffffffffffffffffff1681526020018273ffffffffffffffffffffffffffffffffffffffff1673ffffffffffffffffffffffffffffffffffffffff16815260200192505050602060405180830381600087803b158015610b6d57600080fd5b505af1158015610b81573d6000803e3d6000fd5b505050506040513d6020811015610b9757600080fd5b810190808051906020019092919050505010151515610bb557600080fd5b600160009054906101000a900473ffffffffffffffffffffffffffffffffffffffff1673ffffffffffffffffffffffffffffffffffffffff166323b872dd600260009054906101000a900473ffffffffffffffffffffffffffffffffffffffff16336006546040518463ffffffff167c0100000000000000000000000000000000000000000000000000000000028152600401808473ffffffffffffffffffffffffffffffffffffffff1673ffffffffffffffffffffffffffffffffffffffff1681526020018373ffffffffffffffffffffffffffffffffffffffff1673ffffffffffffffffffffffffffffffffffffffff1681526020018281526020019350505050602060405180830381600087803b158015610cd257600080fd5b505af1158015610ce6573d6000803e3d6000fd5b505050506040513d6020811015610cfc57600080fd5b810190808051906020019092919050505050600654600960003373ffffffffffffffffffffffffffffffffffffffff1673ffffffffffffffffffffffffffffffffffffffff168152602001908152602001600020600082825401925050819055506006546004600082825401925050819055503373ffffffffffffffffffffffffffffffffffffffff167fb1b767d05b4269fdc39b45aef9495a1ba3ec927d68cb6b0514da4d8edd8386b96006546040518082815260200191505060405180910390a2565b6000809054906101000a900473ffffffffffffffffffffffffffffffffffffffff1673ffffffffffffffffffffffffffffffffffffffff163373ffffffffffffffffffffffffffffffffffffffff16141515610e1c57600080fd5b600160009054906101000a900473ffffffffffffffffffffffffffffffffffffffff1673ffffffffffffffffffffffffffffffffffffffff1663a9059cbb600260009054906101000a900473ffffffffffffffffffffffffffffffffffffffff16600160009054906101000a900473ffffffffffffffffffffffffffffffffffffffff1673ffffffffffffffffffffffffffffffffffffffff166370a08231336040518263ffffffff167c0100000000000000000000000000000000000000000000000000000000028152600401808273ffffffffffffffffffffffffffffffffffffffff1673ffffffffffffffffffffffffffffffffffffffff168152602001915050602060405180830381600087803b158015610f3a57600080fd5b505af1158015610f4e573d6000803e3d6000fd5b505050506040513d6020811015610f6457600080fd5b81019080805190602001909291905050506040518363ffffffff167c0100000000000000000000000000000000000000000000000000000000028152600401808373ffffffffffffffffffffffffffffffffffffffff1673ffffffffffffffffffffffffffffffffffffffff16815260200182815260200192505050602060405180830381600087803b158015610ffa57600080fd5b505af115801561100e573d6000803e3d6000fd5b505050506040513d602081101561102457600080fd5b810190808051906020019092919050505050565b6000809054906101000a900473ffffffffffffffffffffffffffffffffffffffff1681565b8173ffffffffffffffffffffffffffffffffffffffff163373ffffffffffffffffffffffffffffffffffffffff161415151561109857600080fd5b600854600160009054906101000a900473ffffffffffffffffffffffffffffffffffffffff1673ffffffffffffffffffffffffffffffffffffffff166370a08231336040518263ffffffff167c0100000000000000000000000000000000000000000000000000000000028152600401808273ffffffffffffffffffffffffffffffffffffffff1673ffffffffffffffffffffffffffffffffffffffff168152602001915050602060405180830381600087803b15801561115857600080fd5b505af115801561116c573d6000803e3d6000fd5b505050506040513d602081101561118257600080fd5b8101908080519060200190929190505050101515156111a057600080fd5b600854600160009054906101000a900473ffffffffffffffffffffffffffffffffffffffff1673ffffffffffffffffffffffffffffffffffffffff1663dd62ed3e33306040518363ffffffff167c0100000000000000000000000000000000000000000000000000000000028152600401808373ffffffffffffffffffffffffffffffffffffffff1673ffffffffffffffffffffffffffffffffffffffff1681526020018273ffffffffffffffffffffffffffffffffffffffff1673ffffffffffffffffffffffffffffffffffffffff16815260200192505050602060405180830381600087803b15801561129457600080fd5b505af11580156112a8573d6000803e3d6000fd5b505050506040513d60208110156112be57600080fd5b8101908080519060200190929190505050101515156112dc57600080fd5b600160009054906101000a900473ffffffffffffffffffffffffffffffffffffffff1673ffffffffffffffffffffffffffffffffffffffff166323b872dd33306008546040518463ffffffff167c0100000000000000000000000000000000000000000000000000000000028152600401808473ffffffffffffffffffffffffffffffffffffffff1673ffffffffffffffffffffffffffffffffffffffff1681526020018373ffffffffffffffffffffffffffffffffffffffff1673ffffffffffffffffffffffffffffffffffffffff1681526020018281526020019350505050602060405180830381600087803b1580156113d757600080fd5b505af11580156113eb573d6000803e3d6000fd5b505050506040513d602081101561140157600080fd5b810190808051906020019092919050505050604080519081016040528042815260200182815250600b60003373ffffffffffffffffffffffffffffffffffffffff1673ffffffffffffffffffffffffffffffffffffffff16815260200190815260200160002060008473ffffffffffffffffffffffffffffffffffffffff1673ffffffffffffffffffffffffffffffffffffffff168152602001908152602001600020600082015181600001556020820151816001015590505060016005600082825401925050819055508173ffffffffffffffffffffffffffffffffffffffff163373ffffffffffffffffffffffffffffffffffffffff167f7dea0492e445cda27f2e3cad130bec70757c39ba895ed628bbcfbfdc9b03070f60405160405180910390a35050565b60036020528060005260406000206000915090508054600181600116156101000203166002900480601f0160208091040260200160405190810160405280929190818152602001828054600181600116156101000203166002900480156115d25780601f106115a7576101008083540402835291602001916115d2565b820191906000526020600020905b8154815290600101906020018083116115b557829003601f168201915b505050505081565b828054600181600116156101000203166002900490600052602060002090601f016020900481019282601f1061161b57805160ff1916838001178555611649565b82800160010185558215611649579182015b8281111561164857825182559160200191906001019061162d565b5b509050611656919061165a565b5090565b61167c91905b80821115611678576000816000905550600101611660565b5090565b905600a165627a7a723058206f7dc621fd5bb548f70d35a506c6e758b0d5ac05d40c545d1fa66c35cc4c6cf20029",
  "source": "pragma solidity ^0.4.24;\r\n\r\n/*\r\n*   A smart contract for Fax Token Instant Message.\r\n*   ----------------------------------------------\r\n*   This contract is used for:\r\n*   1. New registed user will reward 20 Fax Token.\r\n*   2. User will get 5 Fax Token per day via login.\r\n*   3. It will cost 1 Fax Token per message. \r\n*   \r\n*\r\n*   Version: 1.0.0\r\n*   Update Time: 2019/04/22\r\n*\r\n*/\r\nimport  './FaxToken.sol';\r\n\r\ncontract FaxTokenIM {\r\n    address public admin;\r\n    \r\n    FaxToken public tokenContract;\r\n    address public tokenAdmin;\r\n\r\n    mapping (address=>string) public shhPubKey;\r\n    \r\n    function setPubKey(string _pubkey){\r\n        shhPubKey[msg.sender] = _pubkey;\r\n    }\r\n        \r\n    function FaxTokenIM(FaxToken _tokenContract, address _tokenAdmin) public payable {\r\n        admin = msg.sender;\r\n        tokenContract = _tokenContract;\r\n        tokenAdmin = _tokenAdmin;\r\n    }\r\n    \r\n    function TransferOutToken(){\r\n        require(msg.sender == admin);\r\n        tokenContract.transfer(tokenAdmin, tokenContract.balanceOf(msg.sender));\r\n    }\r\n\r\n    uint256 public rewards = 0; \r\n    uint256 public messageCount = 0;\r\n    uint256  registedRewardToken = 20;\r\n    uint256  loginRewardToken = 5;\r\n    uint256  messageRequireToken = 1;\r\n    \r\n    mapping (address => uint256) public registedReward;\r\n    mapping (uint => mapping(address => uint256)) public loginReward;\r\n    \r\n    struct Message{\r\n        uint _time;\r\n        uint256 _messageBody;\r\n    }\r\n    \r\n    mapping (address => mapping(address => Message)) public MessageList;\r\n\r\n    event RegistedReward(\r\n        address indexed _account,\r\n        uint256 _value\r\n    );\r\n    event LoginReward(\r\n        address indexed _account,\r\n        uint256 _value\r\n    );\r\n    event MessageSendSuccess(\r\n        address indexed _from,\r\n        address indexed _to\r\n    );\r\n\r\n        \r\n    function getRegistedReward() public payable{\r\n        require(registedReward[msg.sender] == 0);\r\n        require(tokenContract.allowance(tokenAdmin,this) >= registedRewardToken);\r\n        tokenContract.transferFrom(tokenAdmin,msg.sender, registedRewardToken);\r\n        registedReward[msg.sender] += registedRewardToken;\r\n        rewards += registedRewardToken;\r\n\r\n        RegistedReward(msg.sender, registedRewardToken);\r\n    }\r\n    \r\n    function getLoginReward() public payable{\r\n        require(loginReward[now/86400][msg.sender] == 0);\r\n        require(tokenContract.allowance(tokenAdmin,this) >= loginRewardToken);\r\n        tokenContract.transferFrom(tokenAdmin,msg.sender, loginRewardToken);\r\n        loginReward[now/86400][msg.sender] += loginRewardToken;\r\n        rewards += loginRewardToken;\r\n        \r\n        LoginReward(msg.sender, loginRewardToken);\r\n        \r\n    }\r\n    \r\n    function sendMessage(address to, uint256 messageBody) public payable{\r\n        require(msg.sender != to);\r\n        require(tokenContract.balanceOf(msg.sender) >= messageRequireToken);\r\n        require(tokenContract.allowance(msg.sender,this)>= messageRequireToken);\r\n        \r\n        tokenContract.transferFrom(msg.sender, this, messageRequireToken);\r\n        MessageList[msg.sender][to] = Message({_time:now, _messageBody: messageBody});\r\n        messageCount += 1;\r\n\r\n        MessageSendSuccess(msg.sender, to);\r\n    }\r\n\r\n}",
  "sourcePath": "D:\\FaxToken-IM-new\\contracts\\FaxTokenIM.sol",
  "compiler": {
    "name": "solc",
    "version": "0.4.24+commit.e67f0147.Emscripten.clang"
  },
  "schemaVersion": "2.0.0",
  "updatedAt": "2019-06-12T06:11:57.600Z"
}