{
  "contractName": "Migrations",
  "abi": [
    {
      "constant": true,
      "inputs": [],
      "name": "last_completed_migration",
      "outputs": [
        {
          "name": "",
          "type": "uint256"
        }
      ],
      "payable": false,
      "stateMutability": "view",
      "type": "function"
    },
    {
      "constant": true,
      "inputs": [],
      "name": "owner",
      "outputs": [
        {
          "name": "",
          "type": "address"
        }
      ],
      "payable": false,
      "stateMutability": "view",
      "type": "function"
    },
    {
      "constant": true,
      "inputs": [
        {
          "name": "",
          "type": "uint256"
        }
      ],
      "name": "userList",
      "outputs": [
        {
          "name": "",
          "type": "bytes32"
        }
      ],
      "payable": false,
      "stateMutability": "view",
      "type": "function"
    },
    {
      "inputs": [],
      "payable": false,
      "stateMutability": "nonpayable",
      "type": "constructor"
    },
    {
      "constant": false,
      "inputs": [
        {
          "name": "completed",
          "type": "uint256"
        }
      ],
      "name": "setCompleted",
      "outputs": [],
      "payable": false,
      "stateMutability": "nonpayable",
      "type": "function"
    },
    {
      "constant": false,
      "inputs": [
        {
          "name": "new_address",
          "type": "address"
        }
      ],
      "name": "upgrade",
      "outputs": [],
      "payable": false,
      "stateMutability": "nonpayable",
      "type": "function"
    },
    {
      "constant": false,
      "inputs": [
        {
          "name": "node",
          "type": "bytes32"
        },
        {
          "name": "addr",
          "type": "address"
        }
      ],
      "name": "setAddr",
      "outputs": [],
      "payable": false,
      "stateMutability": "nonpayable",
      "type": "function"
    },
    {
      "constant": true,
      "inputs": [
        {
          "name": "node",
          "type": "bytes32"
        }
      ],
      "name": "getAddr",
      "outputs": [
        {
          "name": "",
          "type": "address"
        }
      ],
      "payable": false,
      "stateMutability": "view",
      "type": "function"
    },
    {
      "constant": true,
      "inputs": [],
      "name": "getUsers",
      "outputs": [
        {
          "name": "",
          "type": "bytes32[]"
        }
      ],
      "payable": false,
      "stateMutability": "view",
      "type": "function"
    }
  ],
  "bytecode": "0x608060405234801561001057600080fd5b50336000806101000a81548173ffffffffffffffffffffffffffffffffffffffff021916908373ffffffffffffffffffffffffffffffffffffffff1602179055506105ee806100606000396000f30060806040526004361061008d576000357c0100000000000000000000000000000000000000000000000000000000900463ffffffff168062ce8e3e146100925780630900f010146100fe578063445df0ac146101415780634ccee9b61461016c5780638da5cb5b146101dd5780639f4216e814610234578063d5fa2b001461027d578063fdacd576146102ce575b600080fd5b34801561009e57600080fd5b506100a76102fb565b6040518080602001828103825283818151815260200191508051906020019060200280838360005b838110156100ea5780820151818401526020810190506100cf565b505050509050019250505060405180910390f35b34801561010a57600080fd5b5061013f600480360381019080803573ffffffffffffffffffffffffffffffffffffffff169060200190929190505050610357565b005b34801561014d57600080fd5b5061015661043f565b6040518082815260200191505060405180910390f35b34801561017857600080fd5b5061019b6004803603810190808035600019169060200190929190505050610445565b604051808273ffffffffffffffffffffffffffffffffffffffff1673ffffffffffffffffffffffffffffffffffffffff16815260200191505060405180910390f35b3480156101e957600080fd5b506101f261048a565b604051808273ffffffffffffffffffffffffffffffffffffffff1673ffffffffffffffffffffffffffffffffffffffff16815260200191505060405180910390f35b34801561024057600080fd5b5061025f600480360381019080803590602001909291905050506104af565b60405180826000191660001916815260200191505060405180910390f35b34801561028957600080fd5b506102cc6004803603810190808035600019169060200190929190803573ffffffffffffffffffffffffffffffffffffffff1690602001909291905050506104d2565b005b3480156102da57600080fd5b506102f960048036038101908080359060200190929190505050610562565b005b6060600380548060200260200160405190810160405280929190818152602001828054801561034d57602002820191906000526020600020905b81546000191681526020019060010190808311610335575b5050505050905090565b60008060009054906101000a900473ffffffffffffffffffffffffffffffffffffffff1673ffffffffffffffffffffffffffffffffffffffff163373ffffffffffffffffffffffffffffffffffffffff16141561043b578190508073ffffffffffffffffffffffffffffffffffffffff1663fdacd5766001546040518263ffffffff167c010000000000000000000000000000000000000000000000000000000002815260040180828152602001915050600060405180830381600087803b15801561042257600080fd5b505af1158015610436573d6000803e3d6000fd5b505050505b5050565b60015481565b600060026000836000191660001916815260200190815260200160002060009054906101000a900473ffffffffffffffffffffffffffffffffffffffff169050919050565b6000809054906101000a900473ffffffffffffffffffffffffffffffffffffffff1681565b6003818154811015156104be57fe5b906000526020600020016000915090505481565b8060026000846000191660001916815260200190815260200160002060006101000a81548173ffffffffffffffffffffffffffffffffffffffff021916908373ffffffffffffffffffffffffffffffffffffffff16021790555060038290806001815401808255809150509060018203906000526020600020016000909192909190915090600019169055505050565b6000809054906101000a900473ffffffffffffffffffffffffffffffffffffffff1673ffffffffffffffffffffffffffffffffffffffff163373ffffffffffffffffffffffffffffffffffffffff1614156105bf57806001819055505b505600a165627a7a72305820a8c6360c923e4d661c205963da1a65ade07fd3a11b488dbe409f294c8813cb900029",
  "source": "pragma solidity ^0.4.17;\r\n\r\ncontract Migrations {\r\n  address public owner;\r\n  uint public last_completed_migration;\r\n\r\n  modifier restricted() {\r\n    if (msg.sender == owner) _;\r\n  }\r\n\r\n/*  function Migrations() public {\r\n    owner = msg.sender;\r\n  }\r\n*/\r\n\tconstructor() public {\r\n    owner = msg.sender;\r\n\t}\r\n\r\n  function setCompleted(uint completed) public restricted {\r\n    last_completed_migration = completed;\r\n  }\r\n\r\n  function upgrade(address new_address) public restricted {\r\n    Migrations upgraded = Migrations(new_address);\r\n    upgraded.setCompleted(last_completed_migration);\r\n  }\r\n  mapping (bytes32 => address) records;\r\n\r\n  bytes32[] public userList;\r\n    function setAddr(bytes32 node, address addr) public  {\r\n        records[node] = addr;\r\n        userList.push(node);\r\n//        AddrChanged(node, addr);\r\n    }\r\n\r\n    /**\r\n     * Returns the address associated with an ENS node.\r\n     * @param node The ENS node to query.\r\n     * @return The associated address.\r\n     */\r\n    function getAddr(bytes32 node) public view returns (address) {\r\n        return records[node];\r\n    }\r\n    function getUsers()  public view returns (bytes32[]){\r\n        return userList;\r\n    }\r\n}\r\n",
  "sourcePath": "D:\\FaxToken-IM-new\\contracts\\Migrations.sol",
  "compiler": {
    "name": "solc",
    "version": "0.4.24+commit.e67f0147.Emscripten.clang"
  },
  "schemaVersion": "2.0.0",
  "updatedAt": "2019-06-12T06:13:02.489Z"
}