{
  "contractName": "UserData",
  "abi": [
    {
      "constant": true,
      "inputs": [
        {
          "name": "",
          "type": "address"
        }
      ],
      "name": "deviceToken",
      "outputs": [
        {
          "name": "",
          "type": "string"
        }
      ],
      "payable": false,
      "stateMutability": "view",
      "type": "function"
    },
    {
      "constant": true,
      "inputs": [],
      "name": "owner",
      "outputs": [
        {
          "name": "",
          "type": "address"
        }
      ],
      "payable": false,
      "stateMutability": "view",
      "type": "function"
    },
    {
      "constant": true,
      "inputs": [],
      "name": "shhSymKey",
      "outputs": [
        {
          "name": "",
          "type": "bytes32"
        }
      ],
      "payable": false,
      "stateMutability": "view",
      "type": "function"
    },
    {
      "constant": true,
      "inputs": [
        {
          "name": "",
          "type": "address"
        }
      ],
      "name": "keyStoreHash",
      "outputs": [
        {
          "name": "",
          "type": "string"
        }
      ],
      "payable": false,
      "stateMutability": "view",
      "type": "function"
    },
    {
      "constant": true,
      "inputs": [
        {
          "name": "",
          "type": "address"
        }
      ],
      "name": "shhPubKey",
      "outputs": [
        {
          "name": "",
          "type": "string"
        }
      ],
      "payable": false,
      "stateMutability": "view",
      "type": "function"
    },
    {
      "inputs": [],
      "payable": false,
      "stateMutability": "nonpayable",
      "type": "constructor"
    },
    {
      "anonymous": false,
      "inputs": [
        {
          "indexed": false,
          "name": "_type",
          "type": "string"
        },
        {
          "indexed": false,
          "name": "_message",
          "type": "string"
        }
      ],
      "name": "Announcement",
      "type": "event"
    },
    {
      "constant": false,
      "inputs": [
        {
          "name": "_symKey",
          "type": "bytes32"
        }
      ],
      "name": "setSymKey",
      "outputs": [
        {
          "name": "success",
          "type": "bool"
        }
      ],
      "payable": false,
      "stateMutability": "nonpayable",
      "type": "function"
    },
    {
      "constant": false,
      "inputs": [
        {
          "name": "_type",
          "type": "string"
        },
        {
          "name": "_message",
          "type": "string"
        }
      ],
      "name": "sendAnnouncement",
      "outputs": [
        {
          "name": "success",
          "type": "bool"
        }
      ],
      "payable": false,
      "stateMutability": "nonpayable",
      "type": "function"
    },
    {
      "constant": false,
      "inputs": [
        {
          "name": "_priKey",
          "type": "bytes32"
        },
        {
          "name": "_pubKey",
          "type": "string"
        }
      ],
      "name": "setShhKey",
      "outputs": [
        {
          "name": "success",
          "type": "bool"
        }
      ],
      "payable": false,
      "stateMutability": "nonpayable",
      "type": "function"
    },
    {
      "constant": false,
      "inputs": [
        {
          "name": "_addr",
          "type": "address"
        },
        {
          "name": "_priKey",
          "type": "bytes32"
        },
        {
          "name": "_pubKey",
          "type": "string"
        }
      ],
      "name": "setShhKeyByOwner",
      "outputs": [
        {
          "name": "success",
          "type": "bool"
        }
      ],
      "payable": false,
      "stateMutability": "nonpayable",
      "type": "function"
    },
    {
      "constant": false,
      "inputs": [
        {
          "name": "_deviceToken",
          "type": "string"
        }
      ],
      "name": "setDeviceToken",
      "outputs": [
        {
          "name": "success",
          "type": "bool"
        }
      ],
      "payable": false,
      "stateMutability": "nonpayable",
      "type": "function"
    },
    {
      "constant": false,
      "inputs": [
        {
          "name": "_addr",
          "type": "address"
        },
        {
          "name": "_deviceToken",
          "type": "string"
        }
      ],
      "name": "setDeviceTokenByOwner",
      "outputs": [
        {
          "name": "success",
          "type": "bool"
        }
      ],
      "payable": false,
      "stateMutability": "nonpayable",
      "type": "function"
    },
    {
      "constant": false,
      "inputs": [],
      "name": "getShhPriKey",
      "outputs": [
        {
          "name": "priKey",
          "type": "bytes32"
        }
      ],
      "payable": false,
      "stateMutability": "nonpayable",
      "type": "function"
    },
    {
      "constant": false,
      "inputs": [
        {
          "name": "_keyStoreHash",
          "type": "string"
        }
      ],
      "name": "setKeyStoreHash",
      "outputs": [
        {
          "name": "success",
          "type": "bool"
        }
      ],
      "payable": false,
      "stateMutability": "nonpayable",
      "type": "function"
    },
    {
      "constant": false,
      "inputs": [
        {
          "name": "_addr",
          "type": "address"
        },
        {
          "name": "_keyStoreHash",
          "type": "string"
        }
      ],
      "name": "setKeyStoreHashByOwner",
      "outputs": [
        {
          "name": "success",
          "type": "bool"
        }
      ],
      "payable": false,
      "stateMutability": "nonpayable",
      "type": "function"
    }
  ],
  "bytecode": "0x608060405234801561001057600080fd5b50336000806101000a81548173ffffffffffffffffffffffffffffffffffffffff021916908373ffffffffffffffffffffffffffffffffffffffff16021790555061116c806100606000396000f3006080604052600436106100d0576000357c0100000000000000000000000000000000000000000000000000000000900463ffffffff1680630e539dfa146100d55780630ebf979d146101765780632aff71841461023d57806379eb3f67146102f95780637a4edcb1146103a85780638da5cb5b14610437578063990bac4b1461048e578063a49e447d146104d7578063b96711ec1461050a578063b9a104b41461053d578063c8a01bf1146105de578063d886c9731461065f578063dba68b081461071b578063fa57c82d1461079c575b600080fd5b3480156100e157600080fd5b5061015c600480360381019080803573ffffffffffffffffffffffffffffffffffffffff169060200190929190803590602001908201803590602001908080601f0160208091040260200160405190810160405280939291908181526020018383808284378201915050505050509192919290505050610858565b604051808215151515815260200191505060405180910390f35b34801561018257600080fd5b50610223600480360381019080803590602001908201803590602001908080601f0160208091040260200160405190810160405280939291908181526020018383808284378201915050505050509192919290803590602001908201803590602001908080601f0160208091040260200160405190810160405280939291908181526020018383808284378201915050505050509192919290505050610913565b604051808215151515815260200191505060405180910390f35b34801561024957600080fd5b5061027e600480360381019080803573ffffffffffffffffffffffffffffffffffffffff169060200190929190505050610a83565b6040518080602001828103825283818151815260200191508051906020019080838360005b838110156102be5780820151818401526020810190506102a3565b50505050905090810190601f1680156102eb5780820380516001836020036101000a031916815260200191505b509250505060405180910390f35b34801561030557600080fd5b5061038e600480360381019080803573ffffffffffffffffffffffffffffffffffffffff1690602001909291908035600019169060200190929190803590602001908201803590602001908080601f0160208091040260200160405190810160405280939291908181526020018383808284378201915050505050509192919290505050610b33565b604051808215151515815260200191505060405180910390f35b3480156103b457600080fd5b5061041d6004803603810190808035600019169060200190929190803590602001908201803590602001908080601f0160208091040260200160405190810160405280939291908181526020018383808284378201915050505050509192919290505050610c37565b604051808215151515815260200191505060405180910390f35b34801561044357600080fd5b5061044c610cdf565b604051808273ffffffffffffffffffffffffffffffffffffffff1673ffffffffffffffffffffffffffffffffffffffff16815260200191505060405180910390f35b34801561049a57600080fd5b506104bd6004803603810190808035600019169060200190929190505050610d04565b604051808215151515815260200191505060405180910390f35b3480156104e357600080fd5b506104ec610d75565b60405180826000191660001916815260200191505060405180910390f35b34801561051657600080fd5b5061051f610d7b565b60405180826000191660001916815260200191505060405180910390f35b34801561054957600080fd5b506105c4600480360381019080803573ffffffffffffffffffffffffffffffffffffffff169060200190929190803590602001908201803590602001908080601f0160208091040260200160405190810160405280939291908181526020018383808284378201915050505050509192919290505050610dc2565b604051808215151515815260200191505060405180910390f35b3480156105ea57600080fd5b50610645600480360381019080803590602001908201803590602001908080601f0160208091040260200160405190810160405280939291908181526020018383808284378201915050505050509192919290505050610e7d565b604051808215151515815260200191505060405180910390f35b34801561066b57600080fd5b506106a0600480360381019080803573ffffffffffffffffffffffffffffffffffffffff169060200190929190505050610edc565b6040518080602001828103825283818151815260200191508051906020019080838360005b838110156106e05780820151818401526020810190506106c5565b50505050905090810190601f16801561070d5780820380516001836020036101000a031916815260200191505b509250505060405180910390f35b34801561072757600080fd5b50610782600480360381019080803590602001908201803590602001908080601f0160208091040260200160405190810160405280939291908181526020018383808284378201915050505050509192919290505050610f8c565b604051808215151515815260200191505060405180910390f35b3480156107a857600080fd5b506107dd600480360381019080803573ffffffffffffffffffffffffffffffffffffffff169060200190929190505050610feb565b6040518080602001828103825283818151815260200191508051906020019080838360005b8381101561081d578082015181840152602081019050610802565b50505050905090810190601f16801561084a5780820380516001836020036101000a031916815260200191505b509250505060405180910390f35b60008060009054906101000a900473ffffffffffffffffffffffffffffffffffffffff1673ffffffffffffffffffffffffffffffffffffffff163373ffffffffffffffffffffffffffffffffffffffff161415156108b557600080fd5b81600460008573ffffffffffffffffffffffffffffffffffffffff1673ffffffffffffffffffffffffffffffffffffffff168152602001908152602001600020908051906020019061090892919061109b565b506001905092915050565b60008060009054906101000a900473ffffffffffffffffffffffffffffffffffffffff1673ffffffffffffffffffffffffffffffffffffffff163373ffffffffffffffffffffffffffffffffffffffff1614151561097057600080fd5b7f0f6e3a923e38f917e3583ef1838005f118b3819c577c1499b7397b429e5e6ef68383604051808060200180602001838103835285818151815260200191508051906020019080838360005b838110156109d75780820151818401526020810190506109bc565b50505050905090810190601f168015610a045780820380516001836020036101000a031916815260200191505b50838103825284818151815260200191508051906020019080838360005b83811015610a3d578082015181840152602081019050610a22565b50505050905090810190601f168015610a6a5780820380516001836020036101000a031916815260200191505b5094505050505060405180910390a16001905092915050565b60046020528060005260406000206000915090508054600181600116156101000203166002900480601f016020809104026020016040519081016040528092919081815260200182805460018160011615610100020316600290048015610b2b5780601f10610b0057610100808354040283529160200191610b2b565b820191906000526020600020905b815481529060010190602001808311610b0e57829003601f168201915b505050505081565b60008060009054906101000a900473ffffffffffffffffffffffffffffffffffffffff1673ffffffffffffffffffffffffffffffffffffffff163373ffffffffffffffffffffffffffffffffffffffff16141515610b9057600080fd5b82600260008673ffffffffffffffffffffffffffffffffffffffff1673ffffffffffffffffffffffffffffffffffffffff168152602001908152602001600020816000191690555081600360008673ffffffffffffffffffffffffffffffffffffffff1673ffffffffffffffffffffffffffffffffffffffff1681526020019081526020016000209080519060200190610c2b92919061109b565b50600190509392505050565b600082600260003373ffffffffffffffffffffffffffffffffffffffff1673ffffffffffffffffffffffffffffffffffffffff168152602001908152602001600020816000191690555081600360003373ffffffffffffffffffffffffffffffffffffffff1673ffffffffffffffffffffffffffffffffffffffff1681526020019081526020016000209080519060200190610cd492919061109b565b506001905092915050565b6000809054906101000a900473ffffffffffffffffffffffffffffffffffffffff1681565b60008060009054906101000a900473ffffffffffffffffffffffffffffffffffffffff1673ffffffffffffffffffffffffffffffffffffffff163373ffffffffffffffffffffffffffffffffffffffff16141515610d6157600080fd5b816001816000191690555060019050919050565b60015481565b6000600260003373ffffffffffffffffffffffffffffffffffffffff1673ffffffffffffffffffffffffffffffffffffffff16815260200190815260200160002054905090565b60008060009054906101000a900473ffffffffffffffffffffffffffffffffffffffff1673ffffffffffffffffffffffffffffffffffffffff163373ffffffffffffffffffffffffffffffffffffffff16141515610e1f57600080fd5b81600560008573ffffffffffffffffffffffffffffffffffffffff1673ffffffffffffffffffffffffffffffffffffffff1681526020019081526020016000209080519060200190610e7292919061109b565b506001905092915050565b600081600560003373ffffffffffffffffffffffffffffffffffffffff1673ffffffffffffffffffffffffffffffffffffffff1681526020019081526020016000209080519060200190610ed292919061109b565b5060019050919050565b60056020528060005260406000206000915090508054600181600116156101000203166002900480601f016020809104026020016040519081016040528092919081815260200182805460018160011615610100020316600290048015610f845780601f10610f5957610100808354040283529160200191610f84565b820191906000526020600020905b815481529060010190602001808311610f6757829003601f168201915b505050505081565b600081600460003373ffffffffffffffffffffffffffffffffffffffff1673ffffffffffffffffffffffffffffffffffffffff1681526020019081526020016000209080519060200190610fe192919061109b565b5060019050919050565b60036020528060005260406000206000915090508054600181600116156101000203166002900480601f0160208091040260200160405190810160405280929190818152602001828054600181600116156101000203166002900480156110935780601f1061106857610100808354040283529160200191611093565b820191906000526020600020905b81548152906001019060200180831161107657829003601f168201915b505050505081565b828054600181600116156101000203166002900490600052602060002090601f016020900481019282601f106110dc57805160ff191683800117855561110a565b8280016001018555821561110a579182015b828111156111095782518255916020019190600101906110ee565b5b509050611117919061111b565b5090565b61113d91905b80821115611139576000816000905550600101611121565b5090565b905600a165627a7a723058209cb44c72babb4b96be1882ba9c9ed5ab3ab323bb5a21a4a6b88f22181650f4210029",
  "source": "pragma solidity ^0.4.24;\r\n\r\n/*\r\n*   A smart contract for storing User Data.\r\n*   ---------------------------------------\r\n*   Following User Data Included: \r\n*       1. account address, \r\n*       2. shh pri/pub key,\r\n*       3. commmon boradcost key,\r\n*       4. account device token.\r\n*\r\n*   Version: 1.0.0\r\n*   Update Time: 2019/06/12\r\n*\r\n*/\r\ncontract UserData {\r\n\r\n    address public owner;\r\n\r\n    bytes32 public shhSymKey;\r\n    mapping(address => bytes32) shhPriKey;\r\n    mapping(address => string) public shhPubKey;\r\n    mapping(address => string) public deviceToken;\r\n    mapping(address => string) public keyStoreHash;\r\n\r\n    event Announcement(string _type, string _message);\r\n\r\n    function UserData () public {\r\n        owner = msg.sender;\r\n    }\r\n\r\n    function setSymKey(bytes32 _symKey) public returns (bool success){\r\n        require(msg.sender == owner);\r\n        shhSymKey = _symKey;\r\n        return true;\r\n    }\r\n\r\n    function sendAnnouncement(string _type, string _message) public returns(bool success){\r\n        require(msg.sender == owner);\r\n        Announcement(_type, _message);\r\n        return true;\r\n    }\r\n\r\n    function setShhKey(bytes32 _priKey, string _pubKey) public returns(bool success){\r\n        shhPriKey[msg.sender] = _priKey;\r\n        shhPubKey[msg.sender] = _pubKey;\r\n        return true;\r\n    }\r\n\r\n    function setShhKeyByOwner(address _addr, bytes32 _priKey, string _pubKey) public returns(bool success){\r\n        require(msg.sender == owner);\r\n        shhPriKey[_addr] = _priKey;\r\n        shhPubKey[_addr] = _pubKey;\r\n        return true;\r\n    }\r\n\r\n    function setDeviceToken(string _deviceToken) public returns(bool success){\r\n        deviceToken[msg.sender] = _deviceToken;\r\n        return true;\r\n    }\r\n\r\n    function setDeviceTokenByOwner(address _addr, string _deviceToken) public returns(bool success){\r\n        require(msg.sender == owner);\r\n        deviceToken[_addr] = _deviceToken;\r\n        return true;\r\n    }\r\n\r\n    function getShhPriKey() public returns(bytes32 priKey){\r\n        return shhPriKey[msg.sender];\r\n    }\r\n\r\n    function setKeyStoreHash(string _keyStoreHash) public returns(bool success){\r\n        keyStoreHash[msg.sender] = _keyStoreHash;\r\n        return true;\r\n    }\r\n    \r\n    function setKeyStoreHashByOwner(address _addr, string _keyStoreHash) public returns(bool success){\r\n        require(msg.sender == owner);\r\n        keyStoreHash[_addr] = _keyStoreHash;\r\n        return true;\r\n    }\r\n}",
  "sourcePath": "D:\\FaxToken-IM-new\\contracts\\UserData.sol",
  "compiler": {
    "name": "solc",
    "version": "0.4.24+commit.e67f0147.Emscripten.clang"
  },
  "schemaVersion": "2.0.0",
  "updatedAt": "2019-06-12T06:13:02.494Z"
}